S00F00004573636C61766F2E7372656348
S11300000C9461000C947E000C947E000C947E0091
S11300100C947E000C947E000C947E000C947E0064
S11300200C947E000C947E000C947E000C947E0054
S11300300C947E000C947E000C947E000C947E0044
S11300400C947E000C9409010C947E000C947E00A8
S11300500C947E000C947E000C947E000C947E0024
S11300600C947E000C947E000C947E000C947E0014
S11300700C947E000C947E000C947E000C947E0004
S11300800C947E000C947E000C947E000C947E00F4
S11300900C947E000C947E000C947E000C947E00E4
S11300A00C947E000C947E000C947E000C947E00D4
S11300B00C947E00600167016E01780182018C015D
S11300C0960111241FBECFEFD8E0DEBFCDBF11E0F3
S11300D0A0E0B1E0EAE6F3E002C005900D92A8309A
S11300E0B107D9F721E0A8E0B1E001C01D92AC301E
S11300F0B207E1F70E94AF000C94B3010C94000026
S1130100ECE7F0E080818064808380818F77808356
S113011080818F7D8083EAE7F0E080818160808345
S11301208081826080838081846080838081806814
S1130130808308958770ECE7F0E09081907F892BAD
S11301408083EAE7F0E080818064808380917A0094
S113015086FDFCCF80917800909179000895E1ECC0
S1130160F0E08081877E80838AB18FEF8AB91BB8E3
S113017020E048E060E080E40E9448018CB580689B
S11301808CBD0E948000789486E00E949A0090932F
S11301900B0180930A0187E00E949A009093090161
S11301A0809308012FEF81EE94E02150804090402D
S11301B0E1F700C00000E8CF20E030E026C0F901FC
S11301C0E050FF4F6081482F50E0022E02C0559549
S11301D047950A94E2F740FF0BC09BB141E050E021
S11301E002C0440F551F6A95E2F7492B4BB90BC067
S11301F09BB141E050E002C0440F551F6A95E2F7FD
S1130200409549234BB92F5F3F4F28303105BCF24D
S113021008951F920F920FB60F9211242F933F93BC
S11302204F935F936F937F938F939F93AF93BF93FA
S1130230EF93FF938EB5813651F480910A0190912A
S11302400B0196958795969587958EBD10C082363D
S113025051F480910801909109019695879596959E
S113026087958EBD04C00E94DC008FEF8EBDFF9188
S1130270EF91BF91AF919F918F917F916F915F911A
S11302804F913F912F910F900FBE0F901F90189593
S1130290E82F84FF52C084B18C6284B984B18F7E0C
S11302A084B98CB580618CBDE7708E2F90E0873067
S11302B0910508F04BC0FC01E65AFF4F0C94AD01C8
S11302C08CB58C7F8CBD8CB581608CBD3FC08CB5EA
S11302D08D7F8CBD8DB58E7F8DBD38C08CB5816012
S11302E08CBD8CB58D7F8CBD8DB581608DBD2EC0D0
S11302F08CB581608CBD8CB58D7F8CBD8CB58E7FAB
S11303008CBD24C08CB58E7F8CBD8CB582608CBDB9
S11303108CB581608CBD1AC08CB58E7F8CBD8CB5BC
S113032082608CBD8DB58E7F8DBD10C08CB5836011
S11303308CBD8DB58E7F8DBD09C084B1806184B9BB
S113034084B1837D84B98CB58F7E8CBD8CB5462BEE
S1130350242B282B20642CBD0895EE0FFF1F05903D
S10D0360F491E02D0994F894FFCF06
S10B036A00010203040506076B
S9030000FC
