S00F00004D61657374726F2E737265633A
S11300000C9461000C947E000C947E000C947E0091
S11300100C947E000C947E000C947E000C947E0064
S11300200C947E000C947E000C947E000C947E0054
S11300300C947E000C947E000C947E000C947E0044
S11300400C947E000C947E000C947E000C947E0034
S11300500C947E000C947E000C947E000C947E0024
S11300600C947E000C947E000C947E000C947E0014
S11300700C947E000C947E000C947E000C947E0004
S11300800C947E000C947E000C947E000C947E00F4
S11300900C947E000C947E000C947E000C947E00E4
S11300A00C947E000C947E000C947E000C947E00D4
S11300B00C947E0098009F00A600B000BA00C40013
S11300C0CE0011241FBECFEFD8E0DEBFCDBF12E0BB
S11300D0A0E0B1E0E4E7FCE002C005900D92AC338F
S11300E0B107D9F722E0ACE3B2E001C01D92A53418
S11300F0B207E1F70E944F010C9438060C940000FB
S1130100E82F84FF52C084B18C6284B984B18F7E9D
S113011084B98CB580618CBDE7708E2F90E08730F8
S1130120910508F04BC0FC01E65AFF4F0C94C3053F
S11301308CB58C7F8CBD8CB581608CBD3FC08CB57B
S11301408D7F8CBD8DB58E7F8DBD38C08CB58160A3
S11301508CBD8CB58D7F8CBD8DB581608DBD2EC061
S11301608CB581608CBD8CB58D7F8CBD8CB58E7F3C
S11301708CBD24C08CB58E7F8CBD8CB582608CBD4B
S11301808CB581608CBD1AC08CB58E7F8CBD8CB54E
S113019082608CBD8DB58E7F8DBD10C08CB58360A3
S11301A08CBD8DB58E7F8DBD09C084B1806184B94D
S11301B084B1837D84B98CB58F7E8CBD8CB5462B80
S11301C0242B282B20642CBD08958EBD08950DB4D6
S11301D007FEFDCF8EB5089520E030E05BC0482FC8
S11301E050E0022E02C0559547950A94E2F740FF6D
S11301F027C0F901E050FF4F408198EF940F9630EB
S113020080F495B150E04850510961E070E0FB0181
S113021002C0EE0FFF1F4A95E2F7AF01492B45B923
S113022037C04830A8F59BB161E070E0FB0102C023
S1130230EE0FFF1F4A95E2F7AF01492B4BB928C0D7
S1130240F901E050FF4F408198EF940F963088F405
S113025095B150E04850510961E070E0FB0102C0E3
S1130260EE0FFF1F4A95E2F7AF014095492345B9C8
S11302700FC0483068F49BB161E070E0FB0102C03C
S1130280EE0FFF1F4A95E2F7AF01409549234BB9A2
S11302902F5F3F4F283031050CF4A1CF08958AB168
S11302A08C6F8AB984B1876084B91BB815B820E013
S11302B048E060E083E50E94800087E690E00E94C9
S11302C02F0380E00E94EC008AE00E94470288E04D
S11302D091E00E944E028CE291E00E944E0284E57D
S11302E091E00E944E0285E891E00E944E020E9435
S11302F04103C82F0E9447028AE00E944702C1338B
S113030009F08BC08DE991E00E944E028091C000FB
S1130310882324F48091C6008837B1F285B18B7F9D
S113032085B981E60E94E5000E94E70080934402BB
S1130330682F70E080E090E00E94B60420E030E096
S113034040EA50E40E94420520E030E04FE753E4E5
S11303500E940C0460934002709341028093420215
S11303609093430285B1846085B985B18B7F85B94B
S113037082E60E94E5000E94E70080934402682F11
S113038070E080E090E00E94B60420E030E040EAB3
S113039050E40E94420520E030E04FE753E40E941D
S11303A00C0460933C0270933D0280933E02909350
S11303B03F0285B1846085B98AE00E9447028AECD5
S11303C091E00E944E02609140027091410280913E
S11303D04202909143020E94120383ED91E00E9435
S11303E04E0288ED91E00E944E0260913C027091B1
S11303F03D0280913E0290913F020E94120383EDE0
S113040091E00E944E022FEF89E698E1215080404E
S11304109040E1F700C0000079CFC23399F52FEF87
S113042083ED90E3215080409040E1F700C000004C
S113043002C08091C6008091C0008823D4F381EE6D
S113044091E00E944E020E944803C82F8FEF91E072
S11304500E944E028C2F0E945F0288E392E00E9469
S11304604E028C2F0E94EC0085B18B7F85B98C2FB6
S11304700E94E5000E94E7008093440285B18460F5
S113048085B922CF84E192E00E944E021DCF909163
S1130490C00095FFFCCF8093C6000895AC0120E016
S11304A007C09091C00095FFFCCF3093C6002F5F2A
S11304B0FA01E20FF11D30813111F3CF0895CF938A
S11304C0DF9300D000D0CDB7DEB74AE0BE016F5F46
S11304D07F4F90E00E94FB05CE0101960E944E02E0
S11304E00F900F900F900F90DF91CF9108958F92FE
S11304F09F92AF92BF92CF92DF92EF92FF920F93AF
S11305001F93CF93DF93CDB7DEB72A970FB6F89436
S1130510DEBF0FBECDBF4B015C017A010E947E0499
S11305208B01072E000C880B990B0E94B6049B01CB
S1130530AC01C501B4010E949F0320E030E048EC07
S113054052E40E9442050E947E046B01772324F446
S1130550CC24DD24C61AD70A01151105C1F480E3A1
S1130560D7018C93E1E0F0E02CC0C8016AE070E0B0
S11305700E94AF05E1E0F0E0EC0FFD1FE20FF31F76
S1130580805D8083062F172F2F5F3F4F02C020E02E
S113059030E0101611064CF3E0E0F0E00FC0C701A4
S11305A08E0F9F1F21503109A1E0B0E0AC0FBD1F99
S11305B0A20FB31F4C91DC014C9331961216130613
S11305C074F38F010F5F1F4FD701AE0FBF1F8EE271
S11305D08C939F012E5F3F4F0E0D1F1DC6016AE0D5
S11305E070E00E94AF05605DD8016C933396D7012B
S11305F0A20FB31F805D8C93EE0DFF1D10822A960F
S11306000FB6F894DEBF0FBECDBFDF91CF911F911F
S11306100F91FF90EF90DF90CF90BF90AF909F909D
S11306208F900895CF93DF93CDB7DEB72A970FB697
S1130630F894DEBF0FBECDBF22E0AE014F5F5F4F27
S11306400E947702CE0101960E944E022A960FB6AE
S1130650F894DEBF0FBECDBFDF91CF910895909384
S1130660C5008093C40088E18093C10086E0809334
S1130670C20008959091C00095FFFCCF8093C600FE
S113068008958091C0008823E4F78091C6000895FE
S11306900F931F93CF93DF9300D000D0CDB7DEB775
S11306A019821A821B821C8202C08091C60080912A
S11306B0C0008823D4F310E08091C0008823E4F7BD
S11306C08091C60090ED980F9A3078F41330A0F71B
S11306D001E0010FE1E0F0E0EC0FFD1FE10FF11D7F
S11306E080830E943A03102FE7CF8D3011F08A30B7
S11306F019F78DE00E943A038AE00E943A03E1E090
S1130700F0E0EC0FFD1FE10FF11D1082112359F0F1
S1130710CE0101960E94DD05282F392F2F3F310588
S113072009F018F403C080E001C08FEF0F900F9020
S11307300F900F90DF91CF911F910F910895505812
S1130740BB27AA270E94B7030C9408050E94FA0449
S113075038F00E94010520F039F49F3F19F426F483
S11307600C94F7040EF4E095E7FB0C94F104E92FE4
S11307700E94190558F3BA1762077307840795078F
S113078020F079F4A6F50C943B050EF4E0950B2EBD
S1130790BA2FA02D0B01B90190010C01CA01A001CF
S11307A01124FF27591B99F0593F50F4503E68F12A
S11307B01A16F040A22F232F342F4427585FF3CF6B
S11307C0469537952795A795F0405395C9F77EF43C
S11307D01F16BA0B620B730B840BBAF09150A1F085
S11307E0FF0FBB1F661F771F881FC2F70EC0BA0F0B
S11307F0621F731F841F48F4879577956795B79593
S1130800F7959E3F08F0B0CF9395880F08F099278D
S1130810EE0F9795879508950E9420040C9408057F
S11308200E94010558F00E94FA0440F029F45F3F49
S113083029F00C94F10451110C943C050C94F70428
S11308400E94190568F39923B1F3552391F3951B7D
S1130850550BBB27AA2762177307840738F09F5FDD
S11308605F4F220F331F441FAA1FA9F335D00E2E4A
S11308703AF0E0E832D091505040E695001CCAF7B7
S11308802BD0FE2F29D0660F771F881FBB1F26177A
S113089037074807AB07B0E809F0BB0B802DBF0151
S11308A0FF2793585F4F3AF09E3F510578F00C9420
S11308B0F1040C943C055F3FE4F3983ED4F3869531
S11308C077956795B795F7959F5FC9F7880F911D41
S11308D09695879597F90895E1E0660F771F881F2D
S11308E0BB1F621773078407BA0720F0621B730BE0
S11308F0840BBA0BEE1F88F7E09508950E948504D7
S11309006894B1110C943C0508950E94210588F067
S11309109F5798F0B92F9927B751B0F0E1F0660FBF
S1130920771F881F991F1AF0BA95C9F714C0B13000
S113093091F00E943B05B1E008950C943B05672FAC
S1130940782F8827B85F39F0B93FCCF3869577952F
S11309506795B395D9F73EF4909580957095619518
S11309607F4F8F4F9F4F0895E89409C097FB3EF443
S113097090958095709561957F4F8F4F9F4F9923E8
S1130980A9F0F92F96E9BB279395F6958795779566
S11309906795B795F111F8CFFAF4BB0F11F460FF26
S11309A01BC06F5F7F4F8F4F9F4F16C0882311F07E
S11309B096E911C0772321F09EE8872F762F05C092
S11309C0662371F096E8862F70E060E02AF09A952D
S11309D0660F771F881FDAF7880F9695879597F922
S11309E0089597F99F6780E870E060E008959FEFAD
S11309F080EC089500240A941616170618060906B2
S1130A00089500240A941216130614060506089580
S1130A10092E0394000C11F4882352F0BB0F40F408
S1130A20BF2B11F460FF04C06F5F7F4F8F4F9F4F48
S1130A30089557FD9058440F551F59F05F3F71F0CA
S1130A404795880F97FB991F61F09F3F79F0879531
S1130A500895121613061406551FF2CF4695F1DFBA
S1130A6008C0161617061806991FF1CF869571054A
S1130A70610508940895E894BB2766277727CB017E
S1130A8097F908950E9455050C9408050E94FA04EC
S1130A9038F00E94010520F0952311F00C94F10424
S1130AA00C94F70411240C943C050E94190570F36E
S1130AB0959FC1F3950F50E0551F629FF001729FFF
S1130AC0BB27F00DB11D639FAA27F00DB11DAA1F0E
S1130AD0649F6627B00DA11D661F829F2227B00D5B
S1130AE0A11D621F739FB00DA11D621F839FA00DE6
S1130AF0611D221F749F3327A00D611D231F849F36
S1130B00600D211D822F762F6A2F11249F5750408C
S1130B109AF0F1F088234AF0EE0FFF1FBB1F661F07
S1130B20771F881F91505040A9F79E3F510580F0D0
S1130B300C94F1040C943C055F3FE4F3983ED4F329
S1130B40869577956795B795F795E7959F5FC1F774
S1130B50FE2B880F911D9695879597F9089597FB1D
S1130B60072E16F4009407D077FD09D00E94C9051A
S1130B7007FC05D03EF4909581959F4F089570959C
S1130B8061957F4F0895EE0FFF1F0590F491E02DBE
S1130B900994AA1BBB1B51E107C0AA1FBB1FA617C0
S1130BA0B70710F0A61BB70B881F991F5A95A9F712
S1130BB080959095BC01CD010895FC018827992763
S1130BC0E89421912032E9F3293010F02E30C8F353
S1130BD02B3241F02D3239F4689404C00E94060689
S1130BE0820F911D219120532A30C0F31EF4909559
S1130BF081959F4F0895BB274A3031F4992322F4FD
S1130C00BDE2909581959F4F0C940F067AE0979FD3
S1130C10902D879F802D910D11240895BB27FB01F2
S1130C205527AA27880F991FAA1FA41710F0A41BE1
S1130C3083955051B9F7A05DAA3308F0A95DA1933B
S1130C40009779F7B111B1931192CB010C94280656
S1130C50DC01FC01672F71917723E1F7329704C01F
S1130C607C916D9370836291AE17BF07C8F30895AA
S1070C70F894FFCF22
S1130C7402030405060708093D3D3D3D3D3D3D3D58
S1130C843D3D3D3D3D3D3D204D454E55203D3D3D85
S1130C943D3D3D3D3D3D3D3D3D0D0A00312E20563B
S1130CA4657220766F6C74616A6573206465206C68
S1130CB46F7320706F74656E63696F6D6574726FA2
S1130CC4730D0A00322E20496E67726573617220B7
S1130CD46E756D65726F2070617261206D6F7374CF
S1130CE472617220636F6E204C45447320792053E3
S1130CF450490D0A0053656C656363696F6E612026
S1130D04756E61206F7063696F6E3A20000D0A502E
S1130D14726573696F6E6120277827207061726130
S1130D242073616C6972206465206C6173206C6546
S1130D346374757261732E0D0A00566F6C742031DE
S1130D443A200020560D0A00566F6C7420323A2063
S1130D54000D0A496E677265736120756E206E75A5
S1130D646D65726F2028302D323535293A20000DF7
S1130D740A4E756D65726F20696E6772657361647E
S1130D846F3A20004F7063696F6E20696E76616CF0
S1130D946964612E20496E74656E7461206E756594
S10F0DA476616D656E74652E0D0A00000A
S9030000FC
